:020000040800F2
:10000000F8060020E1080008E9080008EB080008ED
:10001000ED080008EF080008F108000800000000E3
:10002000000000000000000000000000F3080008CD
:10003000F508000800000000F7080008F9080008AB
:10004000FB080008FB080008FB080008FB08000884
:10005000FB080008FB080008FB080008FB08000874
:10006000FB080008FB080008FB080008FB08000864
:10007000FB080008FB080008FB080008FB08000854
:10008000FB080008FB080008FB080008000000004F
:1000900000000000FB08000800000000FB0800084A
:1000A000FB080008FB080008FB080008FB08000824
:1000B000FB080008FB080008C9050008FB08000849
:1000C00000000000FB08000800000000FB0800081A
:1000D000FB080008FB080008FB080008FB080008F4
:1000E000FB080008FB080008FB080008FB080008E4
:1000F000FB080008FB080008FB08000800000000DF
:1001000000000000FB080008FB080008FB080008CE
:10011000FB080008FB080008FB080008FB080008B3
:10012000FB080008FB080008FB080008FB080008A3
:10013000FB080008FB0800080000000000000000A9
:10014000FB0800080000000000000000FB08000899
:10015000000000000000000000000000FB08000894
:10016000000000000000000000000000000000008F
:10017000000000000000000000000000FB08000874
:10018000FB08000800000000FB080008FB0800084E
:10019000000000000000000000000000000000005F
:1001A000000000000000000000000000000000004F
:1001B0000000000000F002F800F03FF80AA090E80C
:1001C000000C82448344AAF10107DA4501D100F012
:1001D00034F8AFF2090EBAE80F0013F0010F18BFA0
:1001E000FB1A43F0010318470422000024220000F8
:1001F000103A24BF78C878C1FAD8520724BF30C853
:1002000030C144BF04680C60704700000023002424
:1002100000250026103A28BF78C1FBD8520728BF16
:1002200030C148BF0B607047642901F0EF870020A0
:1002300070471FB51FBD10B510BD02F09CF81146E8
:10024000FFF7F7FF00F05CF902F0BAF803B4FFF72C
:10025000F2FF03BC02F0C2F80146E74A12884A43A3
:100260004FF0E0235A6100229A611A46126942F067
:1002700001021A6100BF4FF0E022106900F0010294
:100280001AB100F48032002AF5D04FF0E022126952
:1002900022F001024FF0E0231A6100229A617047B8
:1002A00010B504462146D54801F0B5FE00BF012136
:1002B000D24801F0B7FE0028F9D010BD70B5044651
:1002C0000D4603E014F8010BFFF7EAFF281EA5F125
:1002D00001018DB2F6D170BD30B589B005460C462E
:1002E0000121042000F03BFF0121022000F01DFF4E
:1002F0008020ADF8040004208DF8070003208DF85D
:10030000060001A9BE4800F051FB02220721BC48AB
:1003100000F00DFC0795ADF818400020ADF8200066
:10032000ADF81A0006A9B74801F018F81E208DF89C
:10033000140000208DF8150001208DF816008DF8AE
:10034000170005A800F01DFC0420ADF808000020EF
:10035000ADF80A000120ADF80C000020ADF80E0049
:10036000ADF8100002A9A74801F03AFC6021A548A9
:1003700001F0CBFC0421A34801F03DFD8021A14800
:1003800001F042FD012205219E4801F073FC052188
:100390009C4801F097FC01219A4801F05DF809B0F2
:1003A00030BD30B589B005460C460121022000F071
:1003B000D6FE0121084600F0B8FE4020ADF820002E
:1003C00018208DF8230003208DF8220008A94FF093
:1003D000904000F0EBFA022206214FF0904000F02E
:1003E000A6FB0695ADF814400020ADF81C00ADF852
:1003F000160005A9844800F0B1FF6020ADF80000A8
:100400000120ADF8020000200290ADF80C00694612
:100410007D4801F050F808217B4801F0DFF9012107
:10042000794800F0FBFF0121774801F015F809B089
:1004300030BD10B586B004460121084600F075FEB7
:100440004FF40070ADF8140003208DF8160018204A
:100450008DF8170005A94FF0904000F0A7FA072289
:100460000921C80600F063FB4FF48060ADF814006A
:1004700004208DF8170005A94FF0904000F096FA7F
:1004800007220A214FF0904000F051FB012110207B
:1004900000F058FE01943020ADF808000020ADF8BF
:1004A0000A00ADF80C00ADF810001820ADF80E00F1
:1004B00001A9524801F04DFD012202214F4801F0EF
:1004C00098FD01214D4801F088FD06B010BD10B522
:1004D0006FF0040000F0A6FB4C4800684C49B0FBEC
:1004E000F1F04C4908700846007800EB4001C1EB80
:1004F000C0104FF6FF7101EAC0003F49088010BDEF
:10050000FFF7E5FF4FF41650FFF793FF3F480068F1
:100510004149B0FBF1F0401E84B2214640F2E73081
:10052000FFF73FFFC821384801F018F93748006845
:100530003949B0FBF1F0401E84B221464FF6FF70FE
:10054000FFF7CAFE35A13A4801F016FE84B22146F3
:100550003748FFF7B3FE36E03648007801282FD140
:1005600035480088642148433449098890FBF1F5F7
:100570002A4633A12E4801F0FFFD84B221462C48C3
:10058000FFF79CFE2D4800884FF47A7191FBF0F53F
:100590002A4630A1264801F0EFFD84B221462448C6
:1005A000FFF78CFE254802882FA1214801F0E4FDC9
:1005B00084B221461E48FFF781FE00201D490870C5
:1005C0006420FFF749FEC7E710B504210D4801F08C
:1005D00068FB60B10B4801F041FB174908800948EE
:1005E00001F03FFB154908800120124908700521E0
:1005F000044801F067FB10BD0200002000380140F4
:100600000004004800080040000400401C000020D6
:1006100000127A000000002040420F00C7EBC1AC7E
:10062000BDD3504237D3EB5041360D0A00000000D5
:1006300034000020080000200600002004000020F4
:10064000647574792020093D2025642525200D0A34
:10065000000000006379636C6520093D2025644B30
:10066000487A0D0A00000000706572696F642020EE
:100670003D20256475730D0A000000002DE9F0434C
:10068000054616461F4608464FF0000C002423E09E
:10069000002319E003F1010805FB08F804F1010942
:1006A000B8FBF9F28A4202D9A2EB010801E0A1EB02
:1006B00002084246904202D9104633703C7010B98D
:1006C0004FF0010C02E05B1C402BE3D300BFBCF1F8
:1006D000000F00D002E0641C042CD9D300BFBDE899
:1006E000F0833FB50020039001200290724800681B
:1006F00040F480307049086000BF6F48006800F423
:10070000003002900398401C0390029818B9039897
:10071000B0F5A06FF1D16848006800F4003048B12E
:10072000012002904FF47A7500BF281EA5F1010543
:10073000FBD101E000200290604861490860029806
:1007400001287CD15F48006840F010005D490860D6
:100750000846006820F00700086059480068401EFD
:100760005949B0FBF1F4072C00D90724554800681B
:10077000204354490860504840684F494860084643
:10078000406848600846406848600846406820F471
:10079000403048604D4C0846406840F48030486026
:1007A0006B4601AA464801682046FFF767FF4248AA
:1007B0000068C0F31300404908609DF804008006FB
:1007C0009DF8001040EA01503B49096808433A4946
:1007D00008600846006B40F0805008633C480068A1
:1007E00040F480303A4908600846006840F44040D0
:1007F000086000BF3648406800F480300028F9D017
:100800002D48006840F080702B49086000BF2A48DE
:10081000006800F000700028F9D000BF2C48006884
:1008200040F400302A4908600846406800F400306F
:100830000028F3D04FF47A7500BF281E00E014E0C2
:10084000A5F10105F9D11C48406820F003001A49C0
:1008500048600846406840F00200486000BF164803
:10086000406800F00C000828F9D13FBD00B51248DF
:100870004068184908401049486008460068164911
:1008800008400D4908600846006820F48020086090
:100890000846406820F4FE00486008460068C0F33F
:1008A000130008604FF41F008860FFF71AFF4FF035
:1008B00000600A49086000BD0010024000D8B80579
:1008C0001C0000200020024000366E0100127A0059
:1008D000007000400C00FFF8FFFFF6FE08ED00E09E
:1008E0000948804709480047FEE7FEE7FEE7FEE7C4
:1008F000FEE7FEE7FEE7FEE7FEE7FEE70448054900
:10090000054A064B704700006D080008B501000855
:10091000F8000020F8060020F8020020F80200206D
:1009200010B504469249601A8C4220D006DCB4F11E
:10093000904F0AD08F482044A0BB0FE0B0F5806FE5
:100940001ED0B0F5006F2ED123E00121084600F043
:10095000ECFB0021012000F0E8FB25E00121022052
:1009600000F0E3FB0021022000F0DFFB1CE001218E
:10097000042000F0DAFB0021042000F0D6FB13E095
:100980000121082000F0D1FB0021082000F0CDFB60
:100990000AE00121102000F0C8FB0021102000F027
:1009A000C4FB01E0FFE700BF00BF10BD2DE9F0412F
:1009B000024600250026002000230024002791F88D
:1009C00003C00CF00F0591F803C00CF0100CBCF143
:1009D000000F03D091F802C04CEA050591F800C061
:1009E000BCF1000F31D0146800202BE04FF0010C57
:1009F0000CFA00F3B1F800C00CEA03069E4220D1C5
:100A000083004FF00F0C0CFA03F7BC4305FA03FC0C
:100A10004CEA040491F803C0BCF1280F06D14FF052
:100A2000010C0CFA00FCC2F814C00AE091F803C0F3
:100A3000BCF1480F05D14FF0010C0CFA00FCC2F8D4
:100A400010C0401C0828D1D31460B1F800C0BCF11C
:100A5000FF0F34DD546800202EE000F1080C4FF049
:100A6000010808FA0CF3B1F800C00CEA03069E4234
:100A700021D183004FF00F0C0CFA03F7BC4305FAA9
:100A800003FC4CEA040491F803C0BCF1280F05D123
:100A900000F1080C08FA0CF8C2F8148091F803C0B1
:100AA000BCF1480F07D100F1080C4FF0010808FA1B
:100AB0000CF8C2F81080401C0828CED35460BDE862
:100AC000F0814FF6FF710180022181700421C17015
:100AD00070470246002093680B400BB1012000E0F4
:100AE000002070470146886880B2704702460020A7
:100AF000D3680B400BB1012000E000207047014695
:100B0000C86880B2704701617047416170470AB19F
:100B1000016100E041617047C16070474FF480326D
:100B20000A43826181618261826982697047F0B59E
:100B3000002300244D07ED0E02FA05F3CD105DB938
:100B4000056A4E07F70E0F26BE40B5430562056ADB
:100B500045EA030404620AE0456A4E07F70E0F26D1
:100B6000BE40B5434562456A45EA03044462F0BDB0
:100B70000008004800FCFFB734490143344A1160C3
:100B8000704770B5002100230F22C47804B3304CA5
:100B9000246804F4E064C4F5E064210AC1F10403AC
:100BA000CA40447804FA03F18478144021430901CF
:100BB000284C0678A155047804F01F050124AC40A8
:100BC00005786D11AD0005F1E025C5F8004109E09B
:100BD000047804F01F050124AC401F4D06787611FF
:100BE00045F8264004786411A40004F1E024D4F808
:100BF000003170BD194A0A400243154B1B1F1A6091
:100C0000704739B1124A121D12680243104B1B1D66
:100C10001A6006E00E4A121D126882430C4B1B1D1F
:100C20001A607047042808D14FF0E021096941F0AB
:100C300004014FF0E022116107E04FF0E021096963
:100C400021F004014FF0E022116170470000FA0525
:100C50000CED00E000E400E080E100E080FFFF1F19
:100C6000FE48006840F00100FC4908600846406802
:100C7000FB490840F949486008460068F9490840BE
:100C8000F64908600846006820F48020086008469D
:100C9000406820F4FE004860002088607047EF49FB
:100CA000096821F48031ED4A11601146096821F488
:100CB00080211160B0F5803F03D0B0F5802F0ED1B8
:100CC00006E0E649096841F48031E44A116007E032
:100CD000E249096841F4A021E04A116000E000BF48
:100CE00000BF704710B501460022002300204A11C2
:100CF000012A02D1D94C236806E0022A02D1D74C3E
:100D0000636B01E0D54CA36B01F01F0201249440FA
:100D10001C400CB1012000E0002010BD38B50020BF
:100D200000900024002500BF3120FFF7DBFF0546BF
:100D30000098401C00901DB90098B0F5A06FF3D149
:100D40003120FFF7CFFF08B1012400E00024204646
:100D500038BD01460020C14A106820F0F80040EA82
:100D6000C10010607047012806D1BC49096841F0F4
:100D70000101BA4A116005E0B849096821F0010192
:100D8000B64A1160704710B503460020B34C206886
:100D9000B54C20408C0644EA02542043AF4C2060FE
:100DA00010BD70B506460C460025AC48456825F4D4
:100DB0007C153543456024B9032207213046FFF7EF
:100DC000E2FFB4F5802F04D1012205213046FFF760
:100DD000DAFFB4F5002F04D1012207213046FFF7D6
:100DE000D2FFB4F5402F04D1012209213046FFF78C
:100DF000CAFFB4F5801F04D101220B213046FFF752
:100E0000C2FFB4F5A01F04D101220D213046FFF727
:100E1000BAFFB4F5C01F04D101220F213046FFF7FD
:100E2000B2FFB4F5E01F04D1012211213046FFF7D3
:100E3000AAFFB4F5001F04D1012213213046FFF7A9
:100E4000A2FFB4F5101F04D1012215213046FFF78F
:100E50009AFFB4F5201F04D1012217213046FFF775
:100E600092FFB4F5301F04D1012219213046FFF75B
:100E70008AFFB4F5401F04D101221B213046FFF741
:100E800082FFB4F5501F04D101221D213046FFF727
:100E90007AFFB4F5601F04D101221F213046FFF70D
:100EA00072FFB4F5681F04D1012208213046FFF714
:100EB0006AFFB4F5741F04D1022203213046FFF704
:100EC00062FF70BD30B16549096841F08071634AC5
:100ED000116005E06149096821F080715F4A116085
:100EE0007047014600205D4A506820F00300084327
:100EF000506070475948406800F00C007047014648
:100F00000020564A506820F0F000084350607047B7
:100F100001460020514A506820F4E06008435060C8
:100F20007047014600204D4A506820F4605040EA66
:100F3000C1005060704731B1484A926842EA0022CD
:100F4000464B9A6005E0454A926822EA0022434BEC
:100F50009A607047414949680143404A516070476F
:100F60003E49C96B01433D4AD163704701460020A9
:100F70003A4A506820F4404008435060704737496F
:100F8000496B21F00101354A51631146496B21F04B
:100F900001015163012802D004280ED106E02F4937
:100FA000496B41F001012D4A516307E02B49496B20
:100FB00041F00501294A516300E000BF00BF7047BE
:100FC00030B12649896B41F00101244A916305E063
:100FD0002249896B21F00101204A916370471F4922
:100FE000496B01431D4A5163704730B11B49496B3E
:100FF00041F40041194A516305E01849496B21F455
:101000000041164A51637047F0B5002100240023C7
:1010100000250022114E766806F00C0121B104294A
:1010200005D0082939D105E0104E066038E00F4E92
:10103000066035E0094E3668012707EB9664074ED7
:101040003668C6F30256731C044E766806F4803583
:1010500095B9074E6643B6FBF3F60BE0001002406D
:101060000000FFF8FFFFF6FEFFFF8F0300127A007B
:10107000001BB70006600FE0824E766806F400366B
:101080002EB1814E6643B6FBF3F6066004E07F4E58
:101090006643B6FBF3F6066002E07C4E066000BFD6
:1010A00000BF784E766806F0F0010909784E725C50
:1010B0000668D6404660734E766806F4E061090A19
:1010C000734E725C4668D64086606E4E766806F453
:1010D0006051C90A6E4E725C4668D640C660694E61
:1010E000766806F44041890B6A4E725CC668B6FBAE
:1010F000F2F60661F0BD29B1624A126A0243614B01
:101100001A6204E05F4A126A82435E4B1A627047B9
:1011100029B15C4A526A02435A4B5A6204E0594A66
:10112000526A8243574B5A62704729B1554A926AB4
:101130000243544B9A6204E0524A926A8243514BF2
:101140009A62704729B14F4AD26A02434D4BDA6224
:1011500004E04C4AD26A82434A4BDA62704729B1B2
:10116000484A126B0243474B1A6304E0454A126B2C
:101170008243444B1A63704729B1424AD268024302
:10118000404BDA6004E03F4AD26882433D4BDA606C
:10119000704729B13B4A126902433A4B1A6104E095
:1011A000384A12698243374B1A61704729B1354A70
:1011B00052690243334B5A6104E0324A5269824316
:1011C000304B5A61704729B12E4A926902432D4B28
:1011D0009A6104E02B4A926982432A4B9A617047D4
:1011E00029B1284AD2690243264BDA6104E0254A34
:1011F000D2698243234BDA617047012806D1214925
:10120000496B41F480311F4A516305E01D49496B28
:1012100021F480311B4A51637047012806D11949D6
:10122000096841F40021174A116005E01549096871
:1012300021F40021134A116070471249496821F0D6
:10124000E061104A51601146496841EA006151600D
:1012500070470C48806B40F080700A498863704783
:1012600001460020074A92680A400AB1012000E0C6
:10127000002070470349896841EA0041014A9160B2
:10128000704700000010024000093D0000127A0083
:10129000200000203000002010B50446FE488442A3
:1012A00008D101210846FFF78EFF00210120FFF73A
:1012B0008AFF52E0B4F1804F08D101210846FFF7C0
:1012C0008FFF00210120FFF78BFF46E0F3488442A7
:1012D00008D101210220FFF783FF00210220FFF740
:1012E0007FFF3AE0EE48844208D101210420FFF755
:1012F00077FF00210420FFF773FF2EE0E9488442C6
:1013000008D101210820FFF76BFF00210820FFF71B
:1013100067FF22E0E448844208D101211020FFF752
:101320005FFF00211020FFF75BFF16E0DF488442DB
:1013300008D101212020FFF753FF00212020FFF7D3
:101340004FFF0AE0DA48844207D101210220FFF76B
:101350003AFF00210220FFF736FF10BD002202886D
:10136000CD4B98420ED0B0F1804F0BD0CB4B984272
:1013700008D0CB4B984205D0CA4B984202D0CC4BF8
:10138000984204D14FF68F731A404B881A4302805B
:101390004B68C3620B880385BF4B984202D0C44B95
:1013A000984201D18B7A03860123838270474FF0E4
:1013B000FF314160002101800181418081727047CD
:1013C0000185828270470A46002101884FF68F739B
:1013D000194011430180704741627047C1627047F4
:1013E0000146486A70470146088D704721B102885E
:1013F00042F00202028004E002884FF6FD731A40B8
:101400000280704721B1028842F00402028004E0A9
:1014100002884FF6FB731A400280704721B10288A0
:1014200042F08002028004E002884FF67F731A4087
:101430000280704702884FF6F7731A4002800288D4
:101440000A430280704702884FF6FF431A40028029
:1014500002880A430280704721B1028842F00102EB
:10146000028004E002884FF6FE731A400280704743
:101470000A884B881A438B881A43CB881A430B89F6
:101480001A434B891A438B891A43426470470021DF
:10149000018041808180C1800181418181817047CB
:1014A00021B1426C42F40042426403E0426CC2F358
:1014B0000E024264704770B5002400220023058CA0
:1014C0004FF6FE7635400584028C8388048B4FF6F8
:1014D0008F752C40B51E2C400D882C43751E2A405C
:1014E0008D892A434D882A436B4DA84202D0704D06
:1014F000A84213D14FF6F7752A40CD892A434FF6FB
:10150000FB752A408D882A434FF6FF652B404FF626
:10151000FF552B400D8A2B434D8A2B438380048338
:101520008D684563028470BD70B5002400220023DD
:10153000058C4FF6EF7635400584028C8388048B4A
:1015400048F6FF752C404FF6FF452C400D884FF6AE
:10155000FF7606EA05252C434FF6DF752A408D8974
:1015600006EA05152A434D8806EA05152A434A4D21
:10157000A84202D04E4DA84225D14FF6FF352B4050
:101580000D8A4FF6FF7606EA85052B43424DA842A9
:1015900002D0474DA84216D14FF67F752A40CD891B
:1015A0004FF6FF7606EA05152A434FF6BF752A4027
:1015B0008D8806EA05152A434FF2FF752B404D8AA8
:1015C00006EA85052B43838004838D688563028446
:1015D00070BD70B5002400220023058C4FF6FF6615
:1015E00035400584028C8388848B4FF68F752C40A0
:1015F0004FF6FC752C400D882C434FF6FF552A40C2
:101600008D894FF6FF7606EA05252A434D8806EABE
:1016100005252A43204DA84202D0254DA8421DD1C0
:101620004FF2FF752A40CD894FF6FF7606EA052571
:101630002A434FF6FF352A408D8806EA05252A43BE
:101640004EF6FF752B404DF6FF752B400D8A06EACE
:1016500005152B434D8A06EA05152B4383808483A9
:101660008D68C563028470BD70B50022002300241C
:10167000058C4EF6FF7635400584038C8488828B7A
:1016800048F6FF752A404FF6FF452A400D884FF671
:10169000FF7606EA05250DE0002C0140000400401D
:1016A00000080040000C0040001000400014004002
:1016B000003401402A434DF6FF752B408D8906EA20
:1016C00005352B434D8806EA05352B43FB4DA842D3
:1016D00002D0FB4DA84208D14BF6FF752C400D8A75
:1016E0004FF6FF7606EA85152C43848082838D6849
:1016F0000564038470BD0021018041808180816088
:101700008181C18101824182704770B5034600200A
:1017100000241846183001258D40ACB21D8CA5431D
:101720001D8409B1082909D100EB6100056825F085
:10173000700505600568154305600EE00D1FC5F3D3
:101740004E052844056825F4E045056005684FF618
:10175000FF7606EA02263543056070BD4163704797
:1017600081637047C1637047016470470A46002176
:10177000018B4FF68F7319401143018370470A465E
:101780000021018B48F6FF7319404FF6FF7303EAFF
:1017900002231943018370470A460021818B4FF6CB
:1017A0008F7319401143818370470A460021818B52
:1017B00048F6FF7319404FF6FF7303EA02231943FB
:1017C0008183704721B1828842F00102828004E067
:1017D00082884FF6FE731A40828070470A460021C5
:1017E000018B4FF6F77319401143018370470A4686
:1017F0000021018B4FF2FF7319404FF6FF7303EA8C
:1018000002231943018370470A460021818B4FF65A
:10181000F77319401143818370470A460021818B79
:101820004FF2FF7319404FF6FF7303EA0223194387
:10183000818370470A460021018B4FF6FB731940E4
:101840001143018370470A460021018B4FF6FF3395
:1018500019404FF6FF7303EA0223194301837047CF
:101860000A460021818B4FF6FB7319401143818397
:1018700070470A460021818B4FF6FF3319404FF61F
:10188000FF7303EA02231943818370470A4600214C
:10189000018B4FF67F7319401143018370470A464D
:1018A0000021018BC1F30E014FF6FF7303EA0223FF
:1018B0001943018370470A460021818B4FF67F73DD
:1018C00019401143818370470A460021818BC1F37F
:1018D0000E014FF6FF7303EA022319438183704719
:1018E0000A460021018C4FF6FD7319401143018413
:1018F00070470A460021018C4FF6F77319401143D7
:10190000018470470A460021018C4FF6DF731940AD
:101910004FF6FF7303EA02131943018470470A4626
:101920000021018C4FF67F7319404FF6FF7303EAD5
:1019300002131943018470470A460021018C4FF6B7
:10194000FF5319404FF6FF7303EA02231943018442
:1019500070470A460021018C4FF2FF7319404FF681
:10196000FF7303EA02231943018470470A460021EA
:10197000018C4DF6FF7319404FF6FF7303EA0233F3
:10198000194301847047704730B5002301248C400F
:10199000A3B2048C9C430484048C02FA01F5ADB21A
:1019A0002C43048430BD30B5002304248C40A3B202
:1019B000048C9C430484048C02FA01F5ADB22C43E0
:1019C000048430BD21B1828842F00402828004E0A8
:1019D00082884FF6FB731A4082807047828B4FF2E9
:1019E000FF331A408283828B4FF6FF7303EA012391
:1019F0001A4382837047F0B50C4615460021002239
:101A00000026078C4EF6FF7C07EA0C070784818BC3
:101A1000028C4FF6FF7707EA043640F6FF4739405D
:101A20004FF6FF7707EA052739434FF6FF7707EAB6
:101A3000033739434DF6FF773A4046F480573A432F
:101A400081830284F0BD828B4FF6F3731A40828348
:101A5000828B0A4382837047F0B50C4615460021FD
:101A600000220026078C4FF6FF6C07EA0C0707845C
:101A7000818B028C4FF6FF7707EA04264FF60C772E
:101A800039404FF6FF7707EA03172F4339434FF2E8
:101A9000FF573A4046F480773A4381830284F0BD91
:101AA000028B4FF2FF331A400283028B4FF6FF7313
:101AB00003EA01231A43028370470000002C01400F
:101AC00000340140F0B50C461546002100220026E6
:101AD000078C4FF6EF7C07EA0C070784018B028C1A
:101AE0004FF6FF7707EA041640F6FF4739404FF6F6
:101AF000FF7707EA033739434FF6FF7707EA0527F1
:101B000039434FF65F773A4046F010073A43018376
:101B10000284F0BD028B4FF6F3731A400283028BEE
:101B20000A4302837047F0B50C4615460021002297
:101B3000068C4FF6FE773E400684018B028C4FF6F2
:101B40000C7631407E1C06EA03162E4331434FF6D5
:101B5000F576324044F00106324301830284F0BD41
:101B600070B505460C46208850B92389A288618843
:101B70002846FFF7D8FFE1882846FFF7CBFF25E08E
:101B8000208804280AD12389A28861882846FFF783
:101B900099FFE1882846FFF783FF17E0208808288F
:101BA0000AD12389A28861882846FFF755FFE1887A
:101BB0002846FFF748FF09E02389A2886188284664
:101BC000FFF719FFE1882846FFF708FF70BD0021E5
:101BD00001804180012181800021C1800181704705
:101BE0002DE9F04105460C4600260127608808B91A
:101BF000022600E00026A088012801D1022700E08B
:101C000001272088A0B92389A28861882846FFF788
:101C10008AFFE1882846FFF77DFF23893A4631464F
:101C20002846FFF74FFFE1882846FFF739FF13E00A
:101C30002389A28861882846FFF744FFE188284667
:101C4000FFF72EFF23893A4631462846FFF76BFF00
:101C5000E1882846FFF75EFFBDE8F0810146486B4A
:101C600070470146886B70470146C86B7047014654
:101C7000086C70471AB183890B43838102E0838922
:101C80008B43838170478182704702460020138A0C
:101C90000B400BB1012000E000207047CA430282D4
:101CA000704730B50246002000230024158A05EA5B
:101CB0000103958905EA010413B10CB1012000E08C
:101CC000002030BDCA430282704741EA0203A0F8F7
:101CD000483070471AB183890B43838102E08389BE
:101CE0008B438381704721B1828842F00802828051
:101CF00004E082884FF6F7731A40828070470189AA
:101D00004FF6F8721140018170470A46002101899F
:101D10004FF68F73194011430181704730B5044667
:101D20000D4629462046FFF7F0FF208940F00700C6
:101D3000208130BD2DE9F04104460D4616461F4670
:101D4000602D06D13B46012231462046FFF7BAFE00
:101D500005E03B46012231462046FFF7E4FE2946D6
:101D60002046FFF7D2FF208940F007002081BDE820
:101D7000F08130B50C4600210189C9B24FF6FF75DC
:101D800005EA0325154325432943018130BD2DE98B
:101D9000F04105460E4617469846002443463A460B
:101DA00031462846FFF7E5FF2C894FF6F8700440CE
:101DB00044F007044FF68F70044044F070042C8107
:101DC000BDE8F081F0B504460D4616461F463B4679
:101DD000324629462046FFF7CCFF208940F4804058
:101DE0002081F0BD82884FF68F731A4082808288EE
:101DF0000A438280704702894FF6F8731A400281C5
:101E000002890A430281704702894FF67F731A40A4
:101E1000028102890A4302817047F0B50C461546DB
:101E20001E460021002200230189028B038C4FF6FD
:101E3000F877394021434FF6FC473A4040F201170A
:101E40003A434FF655773B404FF6FF7707EA0617C0
:101E50002F433B43018102830384F0BD21B182887B
:101E600042F08002828004E082884FF67F731A403D
:101E70008280704710B50446BC49601A8C4251D02C
:101E80000CDCBB482044E0B1B0F5806F23D0B0F546
:101E9000006F2AD0B0F5406F58D130E0B0F5806FB8
:101EA0004AD0B0F5404F03D0B0F5444F4ED130E0AA
:101EB00001211020FFF787F900211020FFF783F997
:101EC00045E001214804FFF78BF900214FF4003071
:101ED000FFF786F93BE001218804FFF781F9002133
:101EE0004FF48020FFF77CF931E00121C804FFF7AF
:101EF00077F900214FF40020FFF772F927E0012164
:101F00000805FFF76DF900214FF48010FFF768F91D
:101F10001DE001212020FFF756F900212020FFF7C6
:101F200052F914E001218807FFF75AF900214FF018
:101F30008040FFF755F90AE00121C807FFF750F983
:101F400000214FF00040FFF74BF900E000BF00BF59
:101F500010BD2DE9F04385B004460D460026B0467D
:101F6000B14600272746E66940F2CF108643A8888D
:101F7000E9880843298908430643E661A66926F0F3
:101F80001F06A889698908430643A6616846FFF7CA
:101F90003BF87848874202D1DDF80C8001E0DDF89B
:101FA00008802868B8FBF0F006092868B8FBF0F054
:101FB00000F00F092662C4F8249005B0BDE8F08354
:101FC0004FF416510160302181800021C1800181D0
:101FD0001821418100218181704721B1826942F03D
:101FE0000102826104E082694FF6FE731A40826149
:101FF00070471AB103690B43036102E003698B4325
:10200000036170471AB183690B43836102E08369FE
:102010008B4383617047CAB20260704701464868CB
:10202000C0B270470246002093680B400BB10120FC
:1020300000E0002070478268CB439BB21A40826068
:10204000704702460020D3680B400BB1012000E02E
:102050000020704741617047C2694DF6FF731A4016
:10206000C261C2690A43C261704721B1C26942F4C8
:102070008052C26104E0C2694EF6FF731A40C26129
:102080007047826A02F47F428262826A0A438262F5
:102090007047C26A02F47F42C262C26A0A43C262E5
:1020A000704721B1C26942F40062C26104E0C269B2
:1020B0004FF2FF731A40C261704721B1C26942F406
:1020C0008072C26104E0C2694FF6FF631A40C261C8
:1020D0007047B1F5007F04D1C26942F40072C26159
:1020E00004E0C2694FF6FF531A40C261704721B144
:1020F000C26942F48062C26104E0C2694FF6FF33F4
:102100001A40C261704721B1026B42F480520263EF
:1021100004E0026B4EF6FF731A4002637047026BD5
:102120004FF20F031A400263026B42EA011202638C
:10213000704721B1026B42F00102026304E0026BBE
:102140004FF6FE731A400263704721B1026B42F0F2
:102150000202026304E0026B4FF6FD731A40026351
:102160007047C16941F00801C161704700780040C3
:1021700000BCFFBF003801400FB41CB5084B06AAD5
:102180007B4469460090059800F0DDF80446002085
:10219000694600F0EBF820461CBC5DF814FB00001B
:1021A000E90100002DE9F0410E46044600202062BE
:1021B0002046E168884730B3252805D0D4E90121BD
:1021C0009047206A401CF2E7E168204600278847D4
:1021D000050018D0A5F14100192802D820354FF488
:1021E00000673246294620462760FEF71DF840B1B9
:1021F000012804D0F61D26F007060836D8E7361D5C
:10220000D6E72846DAE7206ABDE8F0812DE9F041FB
:102210000646002410687529314616A510D0AFF384
:102220000080002802DA404213A507E031688A07DF
:1022300001D512A502E0490704D511A5012401E04A
:10224000AFF3008000210A2206F1240709E0B0FB69
:10225000F2FCB0FBF2F302FB1C003030785418465D
:10226000491C0028F3D123462A463046BDE8F041F8
:1022700000F00BB8000000002D0000002B00000053
:10228000200000007047704770472DE9F0470D4669
:1022900099469246044600F124080168880604D550
:1022A000E06921F01001216000E00120A84201DD79
:1022B000471B00E00027A1697A1902EB0900081A00
:1022C000A0612078C00602D42046AFF3008000262B
:1022D00008E0D4E901211AF806009047206A401C62
:1022E000761C20624E45F4DB2078C0060AD52046D5
:1022F000AFF3008006E0D4E9012130209047206A46
:10230000401C2062381EA7F10107F4DC07E0D4E985
:10231000012118F805009047206A401C2062281E01
:10232000A5F10105F3DC2046AFF30080207800061C
:1023300002D50220BDE8F0870120FBE701694A1CB5
:1023400002610878704700B58FB0CDE901310021F6
:10235000059105497944CDE9031011466846FFF718
:1023600021FF0FB000BD0000E5FFFFFF0A6802F883
:10237000010B0A607047754600F02CF8AE46050068
:102380006946534620F00700854618B020B5FEF791
:10239000B5FABDE820404FF000064FF000074FF0BF
:1023A00000084FF0000B21F00701AC46ACE8C00973
:1023B000ACE8C009ACE8C009ACE8C0098D4670477C
:1023C00010B50446AFF300802046BDE81040FDF78D
:1023D0003DBF0000004870479800002001491820C8
:1023E000ABBEFEE726000200704700000C24000888
:1023F0000000002034000000F00100084024000824
:1024000034000020C40600000C0200080000000098
:1024100000000000000000000000000000000000BC
:10242000010203040607080900D8B80500000000EF
:102430000102030401020304060708090204060856
:04000005080001B539
:00000001FF
